:02000000412895
:0E000600831203132B088A002A0882000800C8
:1000140003208A110A128000840AAA0A0319AB0A6F
:08002400F003031D0A28080087
:10002C0083120313FB01FA01F9018030F800F10C83
:10003C00F00C031C2A287408F90775080318750FAF
:10004C00FA070318FB0A0310F01F32287408FA078A
:10005C0075080318750FFB07FB0CFA0CF90CF80C60
:10006C00031C1D287B08F3007A08F2007908F100C4
:06007C007808F000080006
:10008200BF3083120313A0008630A100DB30A20030
:10009200CF30A300E630A400ED30A500FD30A6006D
:1000A2008730A700FF30A800EF30A900B001B101EE
:1000B200B201B3018316860187010814881408155A
:1000C200881588128312860187018812881C842869
:1000D2000230FB008630FC009930FD00FD0B6F28DA
:1000E200FC0B6F28FB0B6F28881C8428B00A0319AD
:1000F200B10A00303106031D80280A303006031D84
:100102008428B001B101081CA1280230FB0086300E
:10011200FC009930FD00FD0B8C28FC0B8C28FB0B9E
:100122008C28081CA128B20A0319B30A003033062E
:10013200031D9D280A303206031DA128B201B30116
:100142003008F0003108F1000A30F4000030F50008
:10015200162032087007AE0071080318013E3307FB
:10016200AF00081DE0280130AC000030AD002E08C1
:10017200F0002F08F1003C30F4000030F5001620AA
:1001820080307106F20080302D067202031DCB28EA
:100192002C087002031CE02888160B30FB00263066
:1001A200FC005D30FD00FD0BD428FC0BD428FB0BBA
:1001B200D42800000000AC0A0319AD0AB82888123E
:1001C20007103008203E8400000886001A30FC0028
:1001D200F830FD00FD0BEB28FC0BEB2800000714A8
:1001E20087103208203E8400000886001A30FC0086
:1001F200F830FD00FD0BFB28FC0BFB2800008714E8
:04020200672802293E
:02400E004A2F37
:00000001FF
