:02000000AB282B
:10000600710DF80DF90D7408F8027508031C750FCB
:10001600F902F00DF10D0F30FC00710DF80DF90D20
:100026007408701C1C28F8027508031C750FF90269
:100036002128F80775080318750FF907F00DF10D5B
:10004600FC0B102870182D287408F807750803187B
:08005600750FF9070000080016
:0E005E00831203132B088A002A088200080070
:10006C002F208A110A128000840AAA0A0319AB0AEB
:08007C00F003031D3628080003
:10008400831203137408003A031D51287508003ABB
:10009400031D5128FF30F0007F30F100AA2883129D
:1000A4000313FD01F901F801710870040319003408
:1000B40071087506FA00FA1BFD09FB01F51F672894
:1000C400F409F509F40A0319F50AF11F6E28F00979
:1000D400F109F00A0319F10A71087504FA00FA1B10
:1000E400832803207B189628FD1F0034F009F109AA
:1000F400F00A0319F10AF809F909F80A0319F90AC7
:100104000034F51F9228F11B8E287108F90070083D
:10011400F800F101F0017628F101F001F00A003451
:10012400F109F009FB0A7328F80A0319F90A74089B
:100134007802031D762875087902031D7628F901D3
:10014400F801F00A0319F10AF11F76280000FF34C0
:020154000800A1
:10015600BF3083120313A0008630A100DB30A2005B
:10016600CF30A300E630A400ED30A500FD30A60098
:100176008730A700FF30A800EF30A900831686015C
:10018600870117308312AC000030AD008030F000DC
:1001960080302D067002031DD2282C08223C031C39
:1001A60026290A30F4000030F5002C08F0002D084E
:1001B600F10042207008B0007108B1000A30F40066
:1001C6000030F5002C08F0002D08F10042207808D8
:1001D600F0007908F1007008AE007108AF00071052
:1001E6003008203E8400000886000D30FC00FB30FD
:1001F600FD00FD0BFC28FC0BFC280000000007148A
:1002060087102E08203E8400000886000D30FC0072
:10021600FB30FD00FD0B0D29FC0B0D290000000035
:1002260087140B30FB002630FC005D30FD00FD0B13
:100236001A29FC0B1A29FB0B1A2900000000AC0A2C
:0A0246000319AD0AC928C4282729AE
:02400E004A2F37
:00000001FF
