:02000000562880
:1000060083120313F101F20100307202031D0D2861
:10001600323071020318282806140330FC0012300F
:10002600FD00FD0B1428FC0B1428000006103230CE
:10003600FC00DD30FD00FD0B1E28FC0B1E28000019
:0C0046000000F10A0319F20A0728080064
:1000520083120313F101F20100307202031D3328EF
:10006200323071020318552806140430FC00E130C6
:10007200FD00FD0B3A28FC0B3A2800307206031DE6
:10008200442800307106031D462806103130FC005A
:100092000B30FD00FD0B4B28FC0B4B280000000031
:0A00A200F10A0319F20A2D280800E4
:1000AC00831603138601FF3087008312071C6C280C
:1000BC0003201530FB004B30FC00BE30FD00FD0B67
:1000CC006528FC0B6528FB0B65280000871C7C2829
:1000DC0029201530FB004B30FC00BE30FD00FD0B21
:1000EC007528FC0B7528FB0B752800005B287D28F8
:02400E004A2F37
:00000001FF
