:020000001628C0
:0E000600831203132B088A002A0882000800C8
:1000140003208A110A128000840AAA0A0319AB0A6F
:08002400F003031D0A28080087
:10002C00BF3083120313A0008630A100DB30A20086
:10003C00CF30A300E630A400ED30A500FD30A600C3
:10004C008730A700FF30A800EF30A900AC01AD014C
:10005C00AE01AF01B001B10183168601870108140E
:10006C008814081588158812831286018701881256
:10007C00081C5E280230FB008630FC009930FD0025
:10008C00FD0B4628FC0B4628FB0B4628081C5E285B
:10009C00AC0A0319AD0A00302D06031D57280A308F
:1000AC002C06031D5E28AE0A0319AF0AAC01AD0184
:1000BC00881C83280230FB008630FC009930FD0040
:1000CC00FD0B6628FC0B6628FB0B6628881C832816
:1000DC00B00A0319B10A0130AC02031CAD030030A5
:1000EC003106031D7B280A303006031D8328AE0120
:1000FC00AF010930AC000030AD0087102C08203E59
:10010C008400000886001A30FC00F830FD00FD0B5E
:10011C008D28FC0B8D280000871407102E08203E1C
:10012C008400000886001A30FC00F830FD00FD0B3E
:0E013C009D28FC0B9D28000007143E28A428D7
:02400E004A2F37
:00000001FF
