:02000000ED2EE3
:06000600000000000800EC
:10000C000F3083120313FC004730FD00FD0B0C284E
:0A001C00FC0B0C2800000000080097
:0E002600213083120313FD00FD0B1728080084
:0E003400F201F101F001F801F30100300800C3
:100042007B15FB1F2B280130F300F201F101F001B7
:08005200FA0DF20CFF3008006A
:10005A00FB14FB1F3728FF30F300F200F100F00019
:08006A00FA0DF20CFF30080052
:08007200FA1FF2130030080030
:10007A0083160313A41B442883128612462883126C
:10008A0086168316241B4C28831206124E288312C6
:10009A0006168316A41A5428831286115628831228
:1000AA0086158316241A5C28831206115E28831289
:1000BA0006155C18622806146328061086140320A5
:1000CA0086108316A4196C28831286126E2883124E
:1000DA008616831624197428831206127628831228
:1000EA0006168316A4187C28831286117E2883128A
:1000FA0086158316241884288312061186288312EB
:10010A0006155C188A2806148B2806108614032004
:0E011A0086105C1C92280620932813200800F3
:100128000E3083120313FD00FD0B98280000080011
:1001380083120313FD01F8017008031900347406D3
:10014800FA00FA1BFD09FB01F41FAC28F409F40AB4
:10015800F01FB028F009F00A70087404FA00FA1BBE
:10016800D4287408F802F00D700DF80D7408F8071B
:10017800F00D0630FC00700DF80D74087018F802C8
:10018800701CF807F00DFC0BBF28701CF8077B18D3
:10019800E228FD1F0034F009F00AF809F80A0034D3
:1001A800F41FDF28F01BDC287008F800F001CD28C8
:1001B800F001F00A0034F009FB0AB528F80A7408BF
:1001C8007802031DCD28F801F00AF01FCD28FF346E
:0201D80008001D
:0601DA00FB15FF300800D8
:1001E000A0017208031D05297108F2007008F100D2
:1001F000F001A0157208031D05297108F200F10134
:10020000A01120167208031913292008F302031DF8
:10021000031C17290310F21B1B29F00DF10DF20D21
:10022000F30B0B2917290130FC001A201E2902307C
:0E023000FC0021201E290430FC0039200800AB
:10023E00831203135C1083162208A4003D205C1465
:02024E000800A6
:10025000831603132208F2007208F100F20A230841
:10026000F000A30A700884000008F0007108840000
:1002700070088000710884000008031940292C29A7
:060280002208F000080056
:100286007C187929FC184A297C1998294329A00148
:100296007208031D6A297108F2007008F1007808D7
:1002A600F000F801A0157208031D6A297108F20012
:1002B6007008F100F001A01120167208031D6A29CA
:1002C6007108F200F101A015720803198C292008A3
:1002D600F302031D031C90290310F21B7929F80D64
:1002E600F00DF10DF20DF30B702990297B1B701C9C
:1002F6009429F81F9429F00A0319F10A0319F20A3E
:10030600031D9429F20CF10CF00CF30A0319982939
:1003160094290130FC001A209B290230FC00212080
:100326009B290430FC0039209B290830FC002D2035
:0403360000000800BB
:0E033A00831203135B088A005A088200080031
:1003480083120313FA017308031D7A147708031D37
:10035800FA147A080319F029033A0319BB297A1801
:10036800B829F61FEE29EC29F21FEC29EE297208AC
:100378008039FA00F21376088039F6137A060319E1
:10038800C9297A080319EC29EE2977087302031999
:10039800D029031CE429E829760872020319D72911
:1003A800031CE429E829750871020319DE29031CD6
:1003B800E429E829740870020319F0290318E829C8
:1003C800FA080319EE29EC29FA080319EC29EE2991
:1003D800031408000310080003140315080008009C
:1003E80083120313FB017308031D770803194B2AB3
:1003F80072087606FA007708F3077E30031C082A8D
:10040800F30203184E2A0B2AF302031C512A72081E
:10041800F8007108FC007008FD00F817F6170310C3
:10042800F201F101F0011830A0007D1C252A7408A2
:10043800F00775080318750FF10776080318760F8B
:10044800F207F20CF10CF00CF80CFC0CFD0C03108C
:10045800A00B192AF21B352AF80DF00DF10DF20D3B
:10046800F3037B1B701C472AF81F472AF00A03195D
:10047800F10A0319F20A031D472AF20CF10CF00CD9
:10048800F30A03194E2AFA1FF2130030532A0130D7
:100498001A20532A02302D20532A0430212000002C
:0204A80008004A
:1004AA0083160313A001A10183126508EC006608F4
:1004BA00ED006708EE006808EF006F08FF3A031DB9
:1004CA00702A6E08FF3A031D702A6D08FF3A031D51
:1004DA00702A6C08FF3A031D7B2A69088316A2005A
:1004EA003630A30028210330F000712C013083122A
:1004FA00EA00EE1F8B2A80306E06F0007008EE00CC
:10050A00EA0A690884002D308000E90A0030F00008
:10051A006F06031D9A2A70086E06031D9A2A700830
:10052A006D06031D9A2A6C08003A031DA42A69085D
:10053A008316A2003E30A3002821F001712C8312F9
:10054A006F08FF3A031DB32A6E08003A031DB32A47
:10055A006D08003A031DB32A6C08003A031DBF2A2E
:10056A0069088316A2003A30A300282183126A0878
:10057A00F000712C83120030F4000030F5000030D6
:10058A00F6007F30F7006C08F0006D08F1006E0885
:10059A00F2006F08F300A421013003180030F000C4
:1005AA0070080319F42A6C08F0006D08F1006E084F
:1005BA00F2006F08F3000030F4000030F50020303C
:1005CA00F6008230F700F4217008EC007108ED00A3
:1005DA007208EE007308EF008316A103BF2A0030E9
:1005EA00F4000030F5002030F6008230F700831264
:1005FA006C08F0006D08F1006E08F2006F08F30055
:10060A00A4210130031C0030F00070080319292BC3
:10061A006C08F0006D08F1006E08F2006F08F30034
:10062A00CD30F400CC30F5004C30F6007B30F700CA
:10063A00F4217008EC007108ED007208EE007308EE
:10064A00EF008316A10AF42AFF3083126C05F80022
:10065A00FF306D05F9007F306E05FA0000306F0536
:10066A00FB007808F4007908F5007A08F6007B08A0
:10067A00F700F40DF50DF60DF70D741000306C054A
:10068A00F00000306D05F10000306E05F200FF3019
:10069A006F05F3007008EC007108ED007208EE00B7
:1006AA007308EF0074086C04F00075086D04F1001B
:1006BA0076086E04F20077086F04F3007008EC0005
:1006CA007108ED007208EE007308EF007F306F02C8
:1006DA00F0007008EB000130EF007008F4006C08BD
:1006EA00F0006D08F1006E08F2006F08F30074085C
:1006FA000319862BF00DF10DF20DF30D7010FF3E6C
:10070A007D2B83127008EC007108ED007208EE0070
:10071A007308EF006F08303EF00069088400700823
:10072A008000E90A803083162106F0008030013A01
:10073A007002031CA92B8030063AF0008030210693
:10074A007002031CA92BB22B8312690884002E3075
:10075A008000E90A01308316A00006308312EB00FC
:10076A006B08003A0319152CEF016C08F0006D08AC
:10077A00F1006E08F2006F08F300F00DF10DF20DB2
:10078A00F30D7010F00DF10DF20DF30D70106C08F1
:10079A00F0076D0803186D0FF1076E0803186E0F46
:1007AA00F2076F0803186F0FF3077008EC0071085F
:1007BA00ED007208EE007308EF006C08F0006D0897
:1007CA00F1006E08F2006F08F300F00DF10DF20D62
:1007DA00F30D70107008EC007108ED007208EE005D
:1007EA007308EF006F08303EF00069088400700853
:1007FA008000E90A83162008003A031D122CA1037F
:10080A002108003A031D122C8312690884002E3035
:10081A008000E90A01308316A0008312EB03B52B8E
:10082A00FF30690784000008303A031D1E2CE903D3
:10083A00152CFF306907840000082E3A031D262C68
:10084A00E90383162108003A03196C2C83126908FC
:10085A00840065308000E90A803083162106F000A2
:10086A008030003A70020318442C8312690884000D
:10087A002D308000E90A83162108003CA1002108D6
:10088A008312EB008030093AF0008030831621068B
:10089A00700203185D2C0A30F40083126B08F00012
:1008AA009C203030F0076908840070088000E90A4B
:1008BA0083120A30F4006B08F0009C207808F000DC
:1008CA003030F0076908840070088000E90A831252
:0A08DA00690884008001F0010800A5
:1008E400842C803083120313E500972CC030E5007C
:1008F400972C9430E500972CD430E500972C803069
:10090400E500972C831203136508013A0319732C2D
:100914006508023A0319782C6508033A03197B2CFD
:100924006508043A03197E2C812C6603F0006508DF
:10093400F0077008E50070088316A4003D205C10E1
:10094400E80168086707840000080319B22C6808E6
:100954006707840000088316A2001F21E80AA32C5D
:040964005C14080017
:10096800831203137408003A031DCF2C7508003A4C
:10097800031DCF2C7608003A031DCF2C7708003AC8
:10098800031DCF2CFF30F000FF30F1007F30F20064
:10099800FF30F3006A2D83120313770803195E2DC5
:1009A80073080319612D720876068039FA00F21768
:1009B800F617A0017208F8007108FC007008FD0025
:1009C8007408FD027508031C750FFC027608031CE9
:1009D800760FF802F801FC01FD01031CFA2C031044
:1009E800F20CF10CF00CF80C0130A0007708F302BF
:1009F800031C042D7E302007F3070318642D092DEE
:100A08007E302007F307031C672D1830FA07FD0D09
:100A1800FC0DF80DF00DF10DF20DA00D7408F002AB
:100A28007508031C750FF1027608031C760FF20295
:100A3800760DA004201C222D7D142D2D7408F0079E
:100A480075080318750FF10776080318760AF20778
:100A58007D10FA031F307A05031D0B2D7B1B7D1CAF
:100A6800542D0310F00DF10DF20DA00D7408F002D5
:100A78007508031C750FF1027608031C760FF20245
:100A8800760D20040139FD070318FC0A0319F80A3A
:100A9800031D542DF80CFC0CFD0CF30A0319642DEE
:100AA800FA1FF8137808F2007C08F1007D08F000BE
:100AB8000030692D0130ED20692D02301A20692D92
:0E0AC80004302D20692D083021200000080088
:100AD60083120313E60166086507840000080319FC
:100AE6007D2D66086507840000088316A2001F2175
:060AF600E60A6E2D080067
:100AFC00902D803083120313E500A32DC030E50048
:100B0C00A32D9430E500A32DD430E500A32D803027
:100B1C00E500A32D831203136508013A03197F2DF9
:100B2C006508023A0319842D6508033A0319872DC9
:100B3C006508043A03198A2D8D2D6603F0006508AB
:100B4C00F0077008E5005C1470088316A4003D20C3
:0E0B5C005C1067088316A4003D205C1408009E
:100B6A00831203139F01C0309F043509F0007008F7
:100B7A0083169F051F179F1783126508F000F00D53
:100B8A007010F00D7010F00D701070089F041F1493
:100B9A0094201F151F1DD32D0000CF2D1F101E08D6
:100BAA00F100F00183161E08F0040030F104080079
:100BBA008312031372087606A000F801F90173087C
:100BCA007702031C002E7708FD007308F7007D08E2
:100BDA00F3007608FD007208F6007D08F200750839
:100BEA00FD007108F5007D08F1007408FD00700829
:100BFA00F4007D08F00077080319792E7208FA00CC
:100C0A00F217F61777087302F7000319332E083024
:100C1A007702031C292EF7007408F9007508F400FE
:100C2A007608F500F60108307702031C292EF70032
:100C3A007408F9007508F400F50108307702031CFE
:100C4A00292E7A08F200792E77080319332E031019
:100C5A00F60CF50CF40CF90CF70B2C2EA01F402EF9
:100C6A00F909F409F509F609F90A0319F40A031945
:100C7A00F50A0319F60A7908F80774080318740FB5
:100C8A00F00775080318750FF10776080318760F31
:100C9A00F207A01B592E031C692EF20CF10CF00C62
:100CAA00F80CF30F692E752E03186D2EF809F0094A
:100CBA00F109F209F80A0319F00A0319F10A0319EA
:100CCA00F20A8030FA06712E0130FC0043217B2E95
:100CDA000230FC0043217B2E0430FC00F0207B2EE6
:100CEA000830FC002D207B2E0030FC00000008009C
:100CFA009D218A110A128000840ADA0A0319DB0A82
:080D0A00F003031D7D2E08001B
:100D1200831203137008F8007108F000F101F20168
:100D2200F301FB01FC019630F300FA017008F100B7
:0C0D32007808F000F801F201F020080041
:100D3E0083160313861006100611861106128612EC
:100D4E0083128610061086120612861106110620D0
:100D5E00062006208615061586140320861006200A
:100D6E008614032086100620861403208610062083
:100D7E000611861403208610062086140320861082
:100D8E0086118616861403208610062086120615F6
:100D9E008614032086100611861403208610062062
:100DAE00861403208610061586140320861006204E
:100DBE00061186140320861086160616861506154D
:0C0DCE0086140320861006205C14080028
:100DDA00C827831603138601FF30850080309F00E1
:100DEA009F2601308316A4003D200C308316A400F0
:100DFA003D20E501B5258926F630F4002830F500B6
:100E0A001C30F6008130F700F4210030F400003085
:100E1A00F5002030F6008230F700B4247008DD00B7
:100E2A007108DE007208DF007308E0000130E50097
:100E3A000130E6005030E70072245D08E5005E08E4
:100E4A00E6005F08E7006008E8004030E900552244
:100E5A00403083120313E5006B250130E5001030A2
:100E6A00E600DF30E7007E252B30E5006B255D08C4
:100E7A00F0005E08F1005F08F2006008F30000303D
:100E8A00F4000030F5001030F6008230F700F4214B
:100E9A000030F4000030F5002030F6008130F70011
:100EAA00B4240030F4000030F5000030F60084303D
:100EBA00F700DD257008E1007108E2007208E3001E
:100ECA007308E4000230E5000130E6002130E70053
:100EDA0072246108E5006208E6006308E700640816
:100EEA00E8004030E9005522403083120313E50040
:100EFA006B250230E5001030E600DF30E7007E2582
:0A0F0A003030E5006B25FE2E892F24
:100F900021308400393083120313F0008F30DA00DF
:080FA0000730DB007D2608008C
:100F1E00543465346D3470342834463429343A34BC
:040F2E002034003437
:0A0F3200203443342034203400340E
:0A0F3C002034463420342034003401
:020F46000F3466
:080F48004E3461344E340034D4
:080F500049344E3446340034EC
:040F580030340034FD
:100F5C0000340034003400340034003400340034E5
:100F6C0000340034003400340034003400340034D5
:100F7C00543465346D3470342834433429343A3461
:040F8C0020340034D9
:02400E004A2F37
:00000001FF
