:020000004F2887
:1000060083120313F101F20100307202031D0D2861
:10001600323071020318282806140330FC0012300F
:10002600FD00FD0B1428FC0B1428000006103230CE
:10003600FC00DD30FD00FD0B1E28FC0B1E28000019
:0C0046000000F10A0319F20A0728080064
:1000520083120313F101F20100307202031D3328EF
:100062003230710203184E2806140630FC00B530F7
:10007200FD00FD0B3A28FC0B3A2800000000061098
:100082002F30FC003A30FD00FD0B4528FC0B4528C3
:0C0092000000F10A0319F20A2D280800F2
:10009E00831603138601FF30870083128601071C27
:1000AE005A2886140320871C6B28861029201530A9
:1000BE00FB004B30FC00BE30FD00FD0B6428FC0B3A
:0C00CE006428FB0B6428000056286C28F6
:02400E004A2F37
:00000001FF
